:100000000C942A000C9447000C9468020C9447004E
:100010000C9447000C9447000C9447000C94470044
:100020000C9447000C9447000C9447000C94F90181
:100030000C9447000C9447000C9447000C94470024
:100040000C9447000C9447000C9447000C94470014
:100050000C94470011241FBECFE5D8E0DEBFCDBF12
:1000600010E0A0E6B0E0E0E7F8E002C005900D92F5
:10007000AC3DB107D9F721E0ACEDB0E001C01D9275
:10008000A432B207E1F70E949C010C9436040C9450
:1000900000008FEF84BB0895982F907F9BBB98B38F
:1000A0009E7F98BB98B3946098BBEFE0F7E23197DE
:1000B000F1F700C0000098B39B7F98BBEFE0F7E238
:1000C0003197F1F700C00000F0E18F9FC0011124CB
:1000D0008BBB88B3846088BB8FE097E20197F1F710
:1000E00000C0000088B38B7F88BBEFE0F7E2319758
:1000F000F1F700C00000089580EF8ABB87B38760E6
:1001000087BB80E28BBB88B3846088BB8FE097E2BB
:100110000197F1F700C0000088B38B7F88BB8FE0A8
:1001200097E20197F1F700C0000088E20E944C00BE
:100130008FE097E20197F1F700C000008FE00E9486
:100140004C008FE097E20197F1F700C0000080E8D3
:100150000E944C0008958FEF84BB84B3806884BBF9
:100160000895CF92DF92EF92FF928FEF84BBC09001
:10017000D700D090D800E090D900F090DA0020E0CD
:1001800030E040E051E4C701B6010E94A7039B01A3
:10019000AC0160E070E084EB93E40E94E4026093C1
:1001A000EC007093ED008093EE009093EF0020E060
:1001B00030E040EC50E46091D3007091D400809125
:1001C000D5009091D6000E94A7036093E800709339
:1001D000E9008093EA009093EB0020E030E044EBEC
:1001E00053E40E94E4029B01AC01C701B6010E94E6
:1001F000A7036093F0007093F1008093F200909356
:10020000F300FF90EF90DF90CF90089583E389B9DA
:1002100010BC8AB188618AB980B5866880BD0895AE
:10022000AC0120E030E00CC09CB96FEF80E792E0B9
:10023000615080409040E1F700C000002F5F3F4FC9
:10024000FA01E20FF31F90819111EECF08958EEC29
:1002500090E00E9410012FEF84E39CE02150804049
:100260009040E1F700C0000083EC90E00E94100194
:100270002FEF84E39CE0215080409040E1F700C0E4
:10028000000087EA90E00E9410012FEF84E39CE0D9
:10029000215080409040E1F700C0000089E990E0E3
:1002A0000E9410012FEF84E39CE021508040904099
:1002B000E1F700C000008BE890E00E9410012FEFF2
:1002C00084E39CE0215080409040E1F700C00000B2
:1002D0002FEF84E39CE0215080409040E1F700C084
:1002E00000008CE690E00E9410012FEF84E39CE078
:1002F000215080409040E1F700C0000008955F99D0
:10030000FECF8CB18093FC0008955F9BFECF80E808
:1003100090E00E9410010E947F0180930201FBCFB8
:100320005F9BFECF8CB1089581B38B7F81BB089515
:1003300081B38B7F81BB08950E94AB000E94EE01C8
:100340000E94B1000E9449000E943A020E944802A5
:100350000E947C000E94060178948FEE87BB8FEF8D
:100360008ABB97ED91BB84BB8FE0E0E6F0E0DF0154
:100370001D928A95E9F70E9498011092DD00109273
:10038000DC000EC00E949001C05ADF4F888380912C
:10039000DC009091DD0001969093DD008093DC00FD
:1003A000C091DC00D091DD00CC30D1055CF380E65B
:1003B00090E00E941001BFEF29E688E1B150204093
:1003C0008040E1F700C000001092DD001092DC00D8
:1003D0000E9494010E9427010E94850187B38860D2
:1003E00087BB089585B7846085BF8BB780688BBF56
:1003F00008951F920F920FB60F9211242F938F938F
:100400009F93AF93BF938091DE009091DF00A09106
:10041000E000B091E1000196A11DB11D8093DE00C6
:100420009093DF00A093E000B093E1008B3D9240F9
:10043000A105B10568F012BE1092E3001092E2002F
:100440001092DE001092DF001092E0001092E100A6
:10045000BF91AF919F918F912F910F900FBE0F90F1
:100460001F90189513BE81E083BF12BE89B78160CB
:1004700089BF089581B3806481BB81B3877F81BBCD
:1004800082B3886082BB0E94F2010E94320208950A
:1004900081B3806881BB0895AC0120E030E014C0D6
:1004A00092B3906892BB8FE99FE00197F1F700C08B
:1004B000000092B39F7792BB8FE99FE00197F1F71D
:1004C00000C000002F5F3F4F241735074CF30895FD
:1004D0001F920F920FB60F9211242F933F934F93B9
:1004E0005F936F937F938F939F93AF93BF93EF939C
:1004F000FF938091E300813009F055C08091E200C4
:1005000081110DC012BE81E08093E2001092DE00E6
:100510001092DF001092E0001092E10044C0809140
:10052000DE009091DF00A091E000B091E100BA2FD1
:10053000A92F982F882722B7BC01CD01620F711D0A
:10054000811D911D22ED31E040E050E00E94140435
:10055000209316013093170140931801509319010D
:100560002FEF89EF90E0215080409040E1F700C0EC
:1005700000008091160190911701A0911801B0918F
:1005800019014997A105B10520F084E690E00E9489
:100590004C021092DE001092DF001092E0001092E8
:1005A000E1001092E200FF91EF91BF91AF919F9116
:1005B0008F917F916F915F914F913F912F910F900C
:1005C0000FBE0F901F9018950E94F8020C946D03B7
:1005D0000E94660358F00E945F0340F029F45F3FD9
:1005E00029F00C94560351110C94A1030C945C0354
:1005F0000E947E0368F39923B1F3552391F3951B71
:10060000550BBB27AA2762177307840738F09F5F33
:100610005F4F220F331F441FAA1FA9F335D00E2EA0
:100620003AF0E0E832D091505040E695001CCAF70D
:100630002BD0FE2F29D0660F771F881FBB1F2617D0
:1006400037074807AB07B0E809F0BB0B802DBF01A7
:10065000FF2793585F4F3AF09E3F510578F00C9476
:1006600056030C94A1035F3FE4F3983ED4F38695C0
:1006700077956795B795F7959F5FC9F7880F911D97
:100680009695879597F90895E1E0660F771F881F83
:10069000BB1F621773078407BA0720F0621B730B36
:1006A000840BBA0BEE1F88F7E095089597F99F67C2
:1006B00080E870E060E008959FEF80EC08950024EA
:1006C0000A941616170618060906089500240A94B7
:1006D00012161306140605060895092E0394000C3D
:1006E00011F4882352F0BB0F40F4BF2B11F460FFCC
:1006F00004C06F5F7F4F8F4F9F4F089557FD9058F5
:10070000440F551F59F05F3F71F04795880F97FBD5
:10071000991F61F09F3F79F087950895121613068F
:100720001406551FF2CF4695F1DF08C016161706BE
:100730001806991FF1CF86957105610508940895F3
:10074000E894BB2766277727CB0197F908950E9485
:10075000BA030C946D030E945F0338F00E94660395
:1007600020F0952311F00C9456030C945C03112493
:100770000C94A1030E947E0370F3959FC1F3950F23
:1007800050E0551F629FF001729FBB27F00DB11D15
:10079000639FAA27F00DB11DAA1F649F6627B00DA5
:1007A000A11D661F829F2227B00DA11D621F739F8E
:1007B000B00DA11D621F839FA00D611D221F749F9C
:1007C0003327A00D611D231F849F600D211D822FE3
:1007D000762F6A2F11249F5750409AF0F1F088230A
:1007E0004AF0EE0FFF1FBB1F661F771F881F915037
:1007F0005040A9F79E3F510580F00C9456030C948D
:10080000A1035F3FE4F3983ED4F38695779567950F
:10081000B795F795E7959F5FC1F7FE2B880F911D60
:100820009695879597F90895A1E21A2EAA1BBB1BEE
:10083000FD010DC0AA1FBB1FEE1FFF1FA217B307AC
:10084000E407F50720F0A21BB30BE40BF50B661FC2
:10085000771F881F991F1A9469F760957095809586
:1008600090959B01AC01BD01CF010895F894FFCF95
:100870002F300000000000000000000041542B4316
:1008800049505345525645523D312C38300D0A00DF
:1008900041542B43494653520D0A0041542B4357B0
:1008A0004D4F44453D320D0A0041542B4349504DB4
:1008B00055583D310D0A0041542B43574A41503D94
:1008C0003132333434352C31613242636431323366
:1008D0000D0A0041542B43574C41500D0A0041541E
:0C08E0000D0A000000C841000034420076
:00000001FF
